:100000000C9462000C948A000C948A000C948A0070
:100010000C948A000C948A000C948A000C948A0038
:100020000C948A000C948A000C948A000C948A0028
:100030000C948A000C948A000C948A000C948A0018
:100040000C94B9050C948A000C9487050C946105F6
:100050000C948A000C948A000C948A000C948A00F8
:100060000C948A000C948A000000000024002700F1
:100070002A0000000000250028002B0000000000DE
:1000800023002600290004040404040404040202DA
:100090000202020203030303030301020408102007
:1000A0004080010204081020010204081020000012
:1000B0000008000201000003040700000000000027
:1000C0000000030611241FBECFEFD8E0DEBFCDBF76
:1000D00012E0A0E0B1E0E2E2F8E102C005900D928A
:1000E000A032B107D9F723E0A0E2B2E001C01D922F
:1000F000AE35B207E1F710E0C2E6D0E004C02197C8
:10010000FE010E94FA0BC136D107C9F70E94BB0657
:100110000C940F0C0C940000EF92FF920F931F931E
:10012000CF93C82F8B01E82EF12C86E0C89FD00119
:100130001124A351BD4F90967C936E935F9781E0FD
:1001400091968C939197E0915A03F0915B03809183
:1001500059038823C1F0309729F0C11103C0809161
:1001600009030995E0915C03F0915D03309729F054
:10017000B80180910903CC23E1F0CF911F910F9139
:10018000FF90EF900895309719F05C968C91099547
:10019000E0915C03F0915D03309779F386E08E9DEA
:1001A000D0018F9DB00D1124A351BD4FB8015C96B5
:1001B0008C91CF911F910F91FF90EF900994CF9266
:1001C000DF92EF92FF920F931F9396E0899FF001C9
:1001D0001124E351FD4F11A2278D30A121303105AB
:1001E00051F178F02230310509F451C02330310546
:1001F00009F452C01F910F91FF90EF90DF90CF90C4
:1002000008956623B9F361E070E00E948C002FB777
:10021000F8948091340290913502A0913602B09109
:1002200037022FBF8093450390934603A093470363
:10023000B0934803DFCF9FB7F894C0903402D090BA
:100240003502E0903602F09037029FBF00914503DF
:10025000109146032091470330914803C01AD10AF8
:10026000E20AF30A009157031091580330E020E0AE
:100270000C151D052E053F0550F462E070E01F913E
:100280000F91FF90EF90DF90CF900C948C00611154
:10029000B1CF63E070E0F3CF70E060E0F0CFFC013D
:1002A000538D448D252F30E0842F90E0821B930BDB
:1002B000541710F0CF96089501970895FC01918D81
:1002C000828D981761F0A28DAE0FBF2FB11D5D9684
:1002D0008C91928D9F5F9F73928F90E008958FEF26
:1002E0009FEF0895FC01918D828D981731F0828DDA
:1002F000E80FF11D858D90E008958FEF9FEF089531
:10030000FC01918D228D892F90E0805C9F4F821B94
:1003100091098F7399270895FC01A48DA80FB92F17
:10032000B11DA35ABF4F2C91848D90E001968F731D
:100330009927848FA689B7892C93A089B1898C913C
:10034000837080648C93938D848D981306C002888B
:10035000F389E02D80818F7D80830895EF92FF9255
:100360000F931F93CF93DF93EC0181E0888F9B8DD8
:100370008C8D98131AC0E889F989808185FF15C092
:100380009FB7F894EE89FF896083E889F9898081B5
:100390008370806480839FBF81E090E0DF91CF9184
:1003A0001F910F91FF90EF900895F62E0B8D10E0A6
:1003B0000F5F1F4F0F731127E02E8C8D8E110CC015
:1003C0000FB607FCFACFE889F989808185FFF5CF60
:1003D000CE010E948C01F1CFEB8DEC0FFD2FF11DB2
:1003E000E35AFF4FF0829FB7F8940B8FEA89FB899D
:1003F00080818062CFCFCF93DF93EC01888D8823FB
:10040000B9F0AA89BB89E889F9898C9185FD03C077
:10041000808186FD0DC00FB607FCF7CF8C9185FF5C
:10042000F2CF808185FFEDCFCE010E948C01E9CF14
:10043000DF91CF91089588E392E00E94800121E04E
:10044000892B09F420E0822F089580E090E0892B29
:1004500029F00E941B0281110C9400000895AF92B4
:10046000BF92CF92DF92EF92FF920F931F93CF93A1
:10047000DF936C017B018B01040F151FEB015E0103
:10048000AE18BF08C017D10759F06991D601ED9198
:10049000FC910190F081E02DC6010995892B79F737
:1004A000C501DF91CF911F910F91FF90EF90DF90E9
:1004B000CF90BF90AF900895833081F028F48130C1
:1004C00099F08230A9F008958730A9F08830C9F0FA
:1004D0008430B1F4809180008F7D03C080918000D2
:1004E0008F7780938000089584B58F7784BD0895B9
:1004F00084B58F7DFBCF8091B0008F778093B00063
:1005000008958091B0008F7DF9CFCF93DF93282F8E
:1005100030E0F901E255FF4F8491F901E656FF4FB3
:10052000D491F901EA57FF4FC491CC23A1F0811176
:100530000E945C02EC2FF0E0EE0FFF1FE458FF4F2B
:10054000A591B491EC91ED2381E090E009F480E075
:10055000DF91CF91089580E090E0FACF862F0C9440
:1005600085021F93CF93DF93282F30E0F901E255E6
:10057000FF4F8491F901E656FF4FD491F901EA57F4
:10058000FF4FC491CC23A9F0162F81110E945C0269
:10059000EC2FF0E0EE0FFF1FEE58FF4FA591B49146
:1005A0008FB7F894EC91111108C0D095DE23DC933D
:1005B0008FBFDF91CF911F910895DE2BF8CF862F4B
:1005C000642F0C94B102CF93DF9390E0FC01E656C8
:1005D000FF4F24918A579F4FFC0184918823C9F0D3
:1005E00090E0880F991FFC01E859FF4FA591B49145
:1005F000FC01EE58FF4FC591D49161110DC09FB71A
:10060000F8948C91209582238C93888128232883C9
:100610009FBFDF91CF910895623051F49FB7F89456
:100620003C91822F809583238C93E8812E2BEFCFF2
:100630008FB7F894EC912E2B2C938FBFEACF862F97
:10064000642F0C94E3023FB7F894809121029091BB
:100650002202A0912302B091240226B5A89B05C0D6
:100660002F3F19F00196A11DB11D3FBFBA2FA92F31
:10067000982F8827BC01CD01620F711D811D911D2E
:1006800042E0660F771F881F991F4A95D1F708959A
:100690008F929F92AF92BF92CF92DF92EF92FF9292
:1006A0004B015C010E9423036B017C010E94230328
:1006B0006C197D098E099F09683E7340810591057B
:1006C000A8F321E0821A9108A108B10888EEC80EAB
:1006D00083E0D81EE11CF11C81149104A104B10433
:1006E00029F7FF90EF90DF90CF90BF90AF909F9051
:1006F0008F900895089590E080E00895CF93DF9360
:10070000EC0160E08E810E94B10261E08E810E9466
:10071000B10260E08E810E94B1028BE891E0019706
:10072000F1F7DF91CF910895CF92DF92EF92FF9290
:100730000F931F93CF93DF936C017C0187E0E80E4A
:10074000F11CD0E0C0E0062F10E0B8010C2E02C072
:10075000759567950A94E2F76170F70181917F01C1
:100760000E94B1022196C430D10579F7C601DF910C
:10077000CF911F910F91FF90EF90DF90CF900C944D
:100780007E03CF92DF92EF92FF920F931F93CF934E
:10079000DF93EC01F62E642F8C810E94B1028D81D3
:1007A0008F3F19F060E00E94B1020F2D10E08F859D
:1007B00084FF25C06E0187E0C80ED11CF12CE12C0E
:1007C000B8010E2C02C0759567950A94E2F7617026
:1007D000F60181916F010E94B102FFEFEF1AFF0A4B
:1007E00088E0E816F10461F7CE01DF91CF911F9107
:1007F0000F91FF90EF90DF90CF900C947E03B801A3
:1008000084E0759567958A95E1F7CE010E9494037F
:100810006F2DCE01DF91CF911F910F91FF90EF903F
:10082000DF90CF900C94940340E0682F85ED92E028
:100830000C94C10381E00E9414048BE39FE10197B3
:10084000F1F70895CF93DF93823029F49091E40279
:1008500098609093E4028093E8021092E90280E4A9
:100860008093EA0280E18093EB0280E58093EC02C2
:1008700061E08091D9020E94E3028091DA028F3F09
:1008800019F061E00E94E30261E08091DB020E94C6
:10089000E302C5EDD2E09E01255D32408091E40285
:1008A00084FD0BC084E090E021962817390744F4BA
:1008B00061E08E810E94E302EECF88E090E0F4CF09
:1008C0008BE39DE00197F1F760E08091D9020E94EF
:1008D000B10260E08091DB020E94B1028091DA02F5
:1008E0008F3F19F060E00E94B1028091E40284FD24
:1008F00034C063E085ED92E00E949403CBE4D6E43B
:10090000CE010197F1F763E085ED92E00E94940338
:100910002197F1F763E085ED92E00E94940383E56F
:1009200092E00197F1F762E085ED92E00E94940376
:100930008091E40280620E94140484E08093E502C6
:100940008CE00E9414040E941A0482E08093E60264
:1009500086E0DF91CF910C94140480620E9414040D
:100960008BE496E40197F1F78091E40280620E94A3
:10097000140483E592E00197F1F78091E40280622C
:100980000E941404D5CF41E00E94C10381E090E0B1
:100990000895FB0101900020E9F73197AF01461B54
:1009A000570BDC01ED91FC910280F381E02D09945D
:1009B000CF93DF93BC0188E392E00E94C904EC016D
:1009C00060E471E088E392E00E94C9048C0F9D1FEF
:1009D000DF91CF910895CF92DF92EF92FF920F9324
:1009E0001F93CF93DF93CDB7DEB7A1970FB6F894DF
:1009F000DEBF0FBECDBF6B017C01F7FE3EC041E004
:100A00006DE285ED92E00E94C10322273327A90100
:100A10002C193D094E095F0919A28E010F5D1F4F68
:100A20009AE0C92ED12CE12CF12CCA01B901A70101
:100A300096010E94AE0B605DF80162938F01211553
:100A400031054105510589F790E080E0309729F0A4
:100A5000BF0185ED92E00E94C9040196A1960FB6F0
:100A6000F894DEBF0FBECDBFDF91CF911F910F91E4
:100A7000FF90EF90DF90CF900895AC019B0119A2F9
:100A80008E010F5D1F4F8AE0C82ED12CE12CF12C76
:100A9000CA01B901A70196010E94AE0B605DF80181
:100AA00062938F01211531054105510589F790E0C9
:100AB00080E0309799F2BF0185ED92E00E94C90471
:100AC000CDCF1F920F920FB60F9211242F933F9309
:100AD0004F935F936F937F938F939F93AF93BF9346
:100AE000EF93FF9388E392E00E948C01FF91EF91D6
:100AF000BF91AF919F918F917F916F915F914F9136
:100B00003F912F910F900FBE0F901F9018951F923D
:100B10000F920FB60F9211242F938F939F93EF9301
:100B2000FF93E0914802F09149028081E0914E02EA
:100B3000F0914F0282FD1BC09081809151028F5F26
:100B40008F7320915202821741F0E0915102F0E040
:100B5000E85CFD4F958F80935102FF91EF919F913B
:100B60008F912F910F900FBE0F901F90189580813D
:100B7000F4CF1F920F920FB60F9211242F933F9331
:100B80008F939F93AF93BF938091340290913502DE
:100B9000A0913602B09137023091200223E0230F5A
:100BA0002D3758F50196A11DB11D20932002809389
:100BB000340290933502A0933602B09337028091AD
:100BC000210290912202A0912302B0912402019669
:100BD000A11DB11D8093210290932202A0932302B4
:100BE000B0932402BF91AF919F918F913F912F912C
:100BF0000F900FBE0F901F90189526E8230F0296B6
:100C0000A11DB11DD2CF10923B0210923A0288EE84
:100C100093E0A0E0B0E080933C0290933D02A0936B
:100C20003E02B0933F028CE191E0909339028093B1
:100C3000380285EC90E0909345028093440284EC66
:100C400090E0909347028093460280EC90E090936E
:100C500049028093480281EC90E090934B0280938C
:100C60004A0282EC90E090934D0280934C0286EC15
:100C700090E090934F0280934E0210925102109296
:100C8000520210925302109254021092EF021092EC
:100C9000F3021092F2021092F4028AE391E0909330
:100CA000EE028093ED02E9E0F3E0108214821382F9
:100CB0001582369683E0E534F807B9F784E091E0D1
:100CC0009093500380934F0380E091E09093520300
:100CD0008093510384E0809353038093540388E00E
:100CE00091E090934E0380934D038AE090E09093BF
:100CF00056038093550384EF91E0909358038093BB
:100D0000570310925B0310925A03109249031092FA
:100D10004A0310924B0310924C0310925903109205
:100D2000D8021092D7028EE291E09093D60280937F
:100D3000D50288E08093D9028FEF8093DA0289E0B0
:100D40008093DB028AE08093DC028BE08093DD02FB
:100D50008CE08093DE028DE08093DF021092E0024F
:100D60001092E1021092E2021092E3021092E40269
:100D700081E00C942204789484B5826084BD84B5AB
:100D8000816084BD85B5826085BD85B5816085BD86
:100D900080916E00816080936E001092810080913E
:100DA00081008260809381008091810081608093C6
:100DB0008100809180008160809380008091B100EB
:100DC00084608093B1008091B00081608093B00016
:100DD00080917A00846080937A0080917A008260AA
:100DE00080937A0080917A00816080937A0080916C
:100DF0007A00806880937A001092C10082E00E949D
:100E0000220463E471E085ED92E00E94C90464EF7E
:100E100071E080E090E00E9448030E941A0465E0BF
:100E2000462E512C612C712C22242A94322C50E015
:100E3000852E50E0952E81E0809359038FB7F8946A
:100E40004091340250913502609136027091370220
:100E50008FBF8091490390914A03A0914B03B091B9
:100E60004C03481B590B6A0B7B0B809155039091E7
:100E70005603B0E0A0E084179507A607B70708F06F
:100E80009DC1C0E080915303C81760F4E0914F0307
:100E9000F0915003EC0FF11D62E080810E94E302AB
:100EA000CF5FF0CFB12C80915403B81608F061C029
:100EB0000B2D10E0E0915103F0915203E00FF11F70
:100EC00061E080810E94E302E0915103F0915203BE
:100ED000E00FF11F60E080810E94B10281E090E0AC
:100EE000A0E0B0E00B2C04C0880F991FAA1FBB1F05
:100EF0000A94D2F76C017C01E094F094A12C8091CB
:100F00005303A816F8F4CA2DD0E0E0914F03F091F6
:100F10005003EC0FFD1F80810E9485022496CC0FA8
:100F2000DD1FC351DD4F892B41F4888199818C29C4
:100F30009D2999838883A394E2CF888199818E210A
:100F40009F21F7CFE0915103F0915203E00FF11F81
:100F500061E080810E94B10280915103909152031F
:100F6000080F191F60E0D8018C910E94E302B3942E
:100F70009ACF2DEEC22E22E0D22EE6018F8D98A1BF
:100F8000892B21F41C8E3E8E2D8E19A22696E9E225
:100F9000F3E0EC17FD0791F710E096E0B92E809191
:100FA0005303181708F052C000E0E12EF12CEE0CAC
:100FB000FF1C97012B503D4F7901209154030217DC
:100FC00008F042C0D7016D917C91002E02C0769549
:100FD00067950A94E2F7129F90011124200F311DAA
:100FE000EDEEF2E080E0458D568D2417350709F4CB
:100FF000A3C38F5F36968A30B1F760FF23C0EDEE52
:10100000F2E090E080E0448D411117C0E0914D0383
:10101000F0914E03E20FF31F6081B89EF001B99E7C
:10102000F00D1124E351FD4F648F368F258F10A2F0
:10103000178E61E00E94DF0005C0019636968A3067
:10104000910509F70F5FB9CF1F5FA9CF80E0F601C7
:1010500091A19111892FF6E0CF0ED11CCC15DD05A1
:10106000B1F79FB7F89440913402509135026091E6
:101070003602709137029FBF4093490350934A0351
:1010800060934B0370934C03882309F497C08091BD
:101090000E03882309F492C080910C0390910D03F4
:1010A000019709F08BC0C0910903C0933302C111AD
:1010B0008AC0C0902E02D0902F02E0903002F090B3
:1010C0003102809132028823C9F080912D028B3247
:1010D00009F0EEC28091290290912A02A0912B0280
:1010E000B0912C028C0D9D1DAE1DBF1D809325025D
:1010F00090932602A0932702B0932802E1E080910A
:10110000E8028111E0E0E195F0E0EB52FD4F8489C7
:1011100080680E941404C701B6010E94EB0441E0FC
:1011200060912D0285ED92E00E94C1036091290239
:1011300070912A0280912B0290912C020E94EB0464
:1011400080913202882381F062E172E085ED92E0C5
:101150000E94C904609125027091260280912702A5
:10116000909128020E94EB04E091E802E23008F03E
:10117000E1C2E150F0E0EB52FD4F84898D5F806861
:101180000E94140466E172E085ED92E00E94C904B9
:101190006091250270912602809127029091280289
:1011A0000E94EB048114910409F445CE0E941B02B5
:1011B000882309F439CE0E94000036CE10925903DC
:1011C0001092330276CF0E941A04CA32F1F481E5FC
:1011D00091E00E94D8041092290210922A021092E3
:1011E0002B0210922C0210922E0210922F021092BB
:1011F00030021092310210922502109226021092B3
:101200002702109228021092320280913302813319
:10121000F1F483E691E00E94D804209125023091F8
:1012200026024091270250912802211531054105DF
:10123000510509F0A4C121E030E040E050E02093E6
:101240002502309326024093270250932802809172
:1012500033028433F1F48CE691E00E94D8042091AB
:101260002502309126024091270250912802211533
:1012700031054105510509F093C184E090E0A0E0FB
:10128000B0E08093250290932602A0932702B093AA
:101290002802809133028733F1F485E791E00E94C0
:1012A000D8042091250230912602409127025091C6
:1012B0002802211531054105510509F082C127E0B9
:1012C00030E040E050E02093250230932602409326
:1012D000270250932802809133028033E9F48EE78D
:1012E00091E00E94D804209125023091260240917D
:1012F000270250912802211531054105510561F061
:10130000AAE0B0E00E94EF0B6093250270932602E2
:101310008093270290932802809133028233F1F464
:1013200087E891E00E94D80420912502309126029E
:1013300040912702509128022115310541055105A0
:1013400009F050C182E090E0A0E0B0E08093250277
:1013500090932602A0932702B09328028091330233
:101360008533D1F480E991E00E94D80420912502D0
:101370003091260240912702509128022115310513
:101380004105510509F03FC14092250250922602C5
:101390006092270270922802809133028833F1F420
:1013A00089E991E00E94D80420912502309126021B
:1013B0004091270250912802211531054105510520
:1013C00009F032C128E030E040E050E020932502EF
:1013D00030932602409327025093280280913302D3
:1013E0008332B9F482EA91E00E94D8048091250208
:1013F00090912602A0912702B091280280932902A1
:1014000090932A02A0932B02B0932C0281E0809348
:101410003202809133028333F1F484EA91E00E9436
:10142000D804209125023091260240912702509144
:101430002802211531054105510509F006C183E057
:1014400090E0A0E0B0E08093250290932602A09364
:101450002702B0932802809133028633F1F48DEA9B
:1014600091E00E94D80420912502309126024091FB
:10147000270250912802211531054105510509F037
:10148000F5C026E030E040E050E0209325023093A4
:101490002602409327025093280280913302893319
:1014A000F1F486EB91E00E94D8042091250230915E
:1014B000260240912702509128022115310541054D
:1014C000510509F0E4C089E090E0A0E0B0E080932D
:1014D000250290932602A0932702B09328028091C0
:1014E00033029FEB980F943008F0E3CD4091250232
:1014F00050912602609127027091280240932E029B
:1015000050932F02609330027093310210922502A3
:10151000109226021092270210922802813439F488
:101520008FEB91E00E94D8048BE280932D02809192
:101530003302823439F480ED91E00E94D8048DE2C8
:1015400080932D0280913302833439F487EE91E049
:101550000E94D8048AE280932D0280913302843461
:1015600039F48EEF91E00E94D8048FE280932D022F
:1015700064E670E080E090E00E9448039ACDAAE023
:10158000B0E00E94EF0B6F5F7F4F8F4F9F4F6093D4
:10159000250270932602809327029093280257CE4B
:1015A000AAE0B0E00E94EF0B6C5F7F4F8F4F9F4F20
:1015B000609325027093260280932702909328025D
:1015C00068CEAAE0B0E00E94EF0B695F7F4F8F4FBB
:1015D0009F4F609325027093260280932702909379
:1015E000280279CEAAE0B0E00E94EF0B6E5F7F4F39
:1015F0008F4F9F4F6093250270932602809327029E
:1016000090932802ABCEAAE0B0E00E94EF0B6B5F94
:101610007F4F8F4F9F4F60932502709326028093D8
:10162000270290932802B8CEAAE0B0E00E94EF0B08
:10163000685F7F4F8F4F9F4F609325027093260204
:101640008093270290932802C9CEAAE0B0E00E94BE
:10165000EF0B6D5F7F4F8F4F9F4F6093250270930D
:1016600026028093270290932802F5CEAAE0B0E0EC
:101670000E94EF0B6A5F7F4F8F4F9F4F6093250251
:1016800070932602809327029093280206CFAAE047
:10169000B0E00E94EF0B675F7F4F8F4F9F4F6093CB
:1016A000250270932602809327029093280217CF79
:1016B0008D3289F48091290290912A02A0912B0207
:1016C000B0912C02A7019601281B390B4A0B5B0B2A
:1016D000DA01C9010BCD8A32A9F420912902309197
:1016E0002A0240912B0250912C02C701B6010E94A0
:1016F0009E0B60932502709326028093270290939D
:101700002802FCCC8F3209F0F9CC209129023091CB
:101710002A0240912B0250912C02C701B6010E946F
:10172000D00B20932502309326024093270250933A
:101730002802E4CCE1E01ECD61707CCCDB018F930C
:101740009F930E94EF0BBF91AF91A29F800D911DBF
:10175000A39F900DB29F900D11240895A1E21A2E1F
:10176000AA1BBB1BFD010DC0AA1FBB1FEE1FFF1F45
:10177000A217B307E407F50720F0A21BB30BE40B95
:10178000F50B661F771F881F991F1A9469F76095DC
:101790007095809590959B01AC01BD01CF01089596
:1017A000052E97FB1EF400940E94E70B57FD07D00F
:1017B0000E94AE0B07FC03D04EF40C94E70B50953F
:1017C0004095309521953F4F4F4F5F4F089590952D
:1017D0008095709561957F4F8F4F9F4F08950E9420
:1017E000000CA59F900DB49F900DA49F800D911D9E
:1017F00011240895EE0FFF1F0590F491E02D099438
:10180000A29FB001B39FC001A39F700D811D112441
:10181000911DB29F700D811D1124911D0895F894A2
:02182000FFCFF8
:1018220004050607000102033132334134353642E2
:10183200373839432A30234400000000AE012F021A
:101842004F01FB0180015E01720100000000C30430
:101852002F027B037A03000000001F03DF02AE02A7
:101862000D0A0020202043616C63756C61746F72F5
:1018720000436C65616E73207468652073637265E2
:10188200656E00427574746F6E2031004275747417
:101892006F6E203400427574746F6E20370042758B
:1018A20074746F6E203000427574746F6E20320053
:1018B200427574746F6E203500427574746F6E20B9
:1018C20038003D00427574746F6E203300427574A7
:1018D200746F6E203600427574746F6E2039004149
:1018E20064647320746865206E756D62657273003E
:1018F2005375627374726163747320746865206EC9
:10190200756D62657273004D756C7469706C696592
:101912007320746865206E756D6265727300446928
:10192200766964657320746865206E756D62657290
:101932007300203D2000526573756C743A200000DC
:00000001FF
